{
  "_format": "hh-sol-artifact-1",
  "contractName": "FYPToken",
  "sourceName": "contracts/erc20.sol",
  "abi": [
    {
      "inputs": [],
      "stateMutability": "nonpayable",
      "type": "constructor"
    },
    {
      "anonymous": false,
      "inputs": [
        {
          "indexed": true,
          "internalType": "address",
          "name": "owner",
          "type": "address"
        },
        {
          "indexed": true,
          "internalType": "address",
          "name": "spender",
          "type": "address"
        },
        {
          "indexed": false,
          "internalType": "uint256",
          "name": "value",
          "type": "uint256"
        }
      ],
      "name": "Approval",
      "type": "event"
    },
    {
      "anonymous": false,
      "inputs": [
        {
          "indexed": true,
          "internalType": "address",
          "name": "from",
          "type": "address"
        },
        {
          "indexed": true,
          "internalType": "address",
          "name": "to",
          "type": "address"
        },
        {
          "indexed": false,
          "internalType": "uint256",
          "name": "value",
          "type": "uint256"
        }
      ],
      "name": "Transfer",
      "type": "event"
    },
    {
      "inputs": [
        {
          "internalType": "address",
          "name": "owner",
          "type": "address"
        },
        {
          "internalType": "address",
          "name": "spender",
          "type": "address"
        }
      ],
      "name": "allowance",
      "outputs": [
        {
          "internalType": "uint256",
          "name": "",
          "type": "uint256"
        }
      ],
      "stateMutability": "view",
      "type": "function"
    },
    {
      "inputs": [
        {
          "internalType": "address",
          "name": "spender",
          "type": "address"
        },
        {
          "internalType": "uint256",
          "name": "amount",
          "type": "uint256"
        }
      ],
      "name": "approve",
      "outputs": [
        {
          "internalType": "bool",
          "name": "",
          "type": "bool"
        }
      ],
      "stateMutability": "nonpayable",
      "type": "function"
    },
    {
      "inputs": [
        {
          "internalType": "address",
          "name": "account",
          "type": "address"
        }
      ],
      "name": "balanceOf",
      "outputs": [
        {
          "internalType": "uint256",
          "name": "",
          "type": "uint256"
        }
      ],
      "stateMutability": "view",
      "type": "function"
    },
    {
      "inputs": [],
      "name": "decimals",
      "outputs": [
        {
          "internalType": "uint8",
          "name": "",
          "type": "uint8"
        }
      ],
      "stateMutability": "view",
      "type": "function"
    },
    {
      "inputs": [
        {
          "internalType": "address",
          "name": "spender",
          "type": "address"
        },
        {
          "internalType": "uint256",
          "name": "subtractedValue",
          "type": "uint256"
        }
      ],
      "name": "decreaseAllowance",
      "outputs": [
        {
          "internalType": "bool",
          "name": "",
          "type": "bool"
        }
      ],
      "stateMutability": "nonpayable",
      "type": "function"
    },
    {
      "inputs": [
        {
          "internalType": "address",
          "name": "spender",
          "type": "address"
        },
        {
          "internalType": "uint256",
          "name": "addedValue",
          "type": "uint256"
        }
      ],
      "name": "increaseAllowance",
      "outputs": [
        {
          "internalType": "bool",
          "name": "",
          "type": "bool"
        }
      ],
      "stateMutability": "nonpayable",
      "type": "function"
    },
    {
      "inputs": [],
      "name": "name",
      "outputs": [
        {
          "internalType": "string",
          "name": "",
          "type": "string"
        }
      ],
      "stateMutability": "view",
      "type": "function"
    },
    {
      "inputs": [
        {
          "internalType": "address payable",
          "name": "receiver",
          "type": "address"
        },
        {
          "internalType": "uint256",
          "name": "amount",
          "type": "uint256"
        }
      ],
      "name": "sendBal",
      "outputs": [],
      "stateMutability": "payable",
      "type": "function"
    },
    {
      "inputs": [],
      "name": "symbol",
      "outputs": [
        {
          "internalType": "string",
          "name": "",
          "type": "string"
        }
      ],
      "stateMutability": "view",
      "type": "function"
    },
    {
      "inputs": [],
      "name": "totalSupply",
      "outputs": [
        {
          "internalType": "uint256",
          "name": "",
          "type": "uint256"
        }
      ],
      "stateMutability": "view",
      "type": "function"
    },
    {
      "inputs": [
        {
          "internalType": "address",
          "name": "to",
          "type": "address"
        },
        {
          "internalType": "uint256",
          "name": "amount",
          "type": "uint256"
        }
      ],
      "name": "transfer",
      "outputs": [
        {
          "internalType": "bool",
          "name": "",
          "type": "bool"
        }
      ],
      "stateMutability": "nonpayable",
      "type": "function"
    },
    {
      "inputs": [
        {
          "internalType": "address",
          "name": "from",
          "type": "address"
        },
        {
          "internalType": "address",
          "name": "to",
          "type": "address"
        },
        {
          "internalType": "uint256",
          "name": "amount",
          "type": "uint256"
        }
      ],
      "name": "transferFrom",
      "outputs": [
        {
          "internalType": "bool",
          "name": "",
          "type": "bool"
        }
      ],
      "stateMutability": "nonpayable",
      "type": "function"
    }
  ],
  "bytecode": "0x60806040523480156200001157600080fd5b506040518060400160405280600881526020017f465950546f6b656e0000000000000000000000000000000000000000000000008152506040518060400160405280600481526020017f465950540000000000000000000000000000000000000000000000000000000081525081600390805190602001906200009692919062000256565b508060049080519060200190620000af92919062000256565b505050620000cd3368056bc75e2d63100000620000d360201b60201c565b620004b2565b600073ffffffffffffffffffffffffffffffffffffffff168273ffffffffffffffffffffffffffffffffffffffff16141562000146576040517f08c379a00000000000000000000000000000000000000000000000000000000081526004016200013d906200033e565b60405180910390fd5b6200015a600083836200024c60201b60201c565b80600260008282546200016e91906200038e565b92505081905550806000808473ffffffffffffffffffffffffffffffffffffffff1673ffffffffffffffffffffffffffffffffffffffff1681526020019081526020016000206000828254620001c591906200038e565b925050819055508173ffffffffffffffffffffffffffffffffffffffff16600073ffffffffffffffffffffffffffffffffffffffff167fddf252ad1be2c89b69c2b068fc378daa952ba7f163c4a11628f55a4df523b3ef836040516200022c919062000360565b60405180910390a362000248600083836200025160201b60201c565b5050565b505050565b505050565b8280546200026490620003f5565b90600052602060002090601f016020900481019282620002885760008555620002d4565b82601f10620002a357805160ff1916838001178555620002d4565b82800160010185558215620002d4579182015b82811115620002d3578251825591602001919060010190620002b6565b5b509050620002e39190620002e7565b5090565b5b8082111562000302576000816000905550600101620002e8565b5090565b600062000315601f836200037d565b9150620003228262000489565b602082019050919050565b6200033881620003eb565b82525050565b60006020820190508181036000830152620003598162000306565b9050919050565b60006020820190506200037760008301846200032d565b92915050565b600082825260208201905092915050565b60006200039b82620003eb565b9150620003a883620003eb565b9250827fffffffffffffffffffffffffffffffffffffffffffffffffffffffffffffffff03821115620003e057620003df6200042b565b5b828201905092915050565b6000819050919050565b600060028204905060018216806200040e57607f821691505b602082108114156200042557620004246200045a565b5b50919050565b7f4e487b7100000000000000000000000000000000000000000000000000000000600052601160045260246000fd5b7f4e487b7100000000000000000000000000000000000000000000000000000000600052602260045260246000fd5b7f45524332303a206d696e7420746f20746865207a65726f206164647265737300600082015250565b61143480620004c26000396000f3fe6080604052600436106100a75760003560e01c806370a082311161006457806370a08231146101e457806395d89b4114610221578063a457c2d71461024c578063a9059cbb14610289578063c5af725d146102c6578063dd62ed3e146102e2576100a7565b806306fdde03146100ac578063095ea7b3146100d757806318160ddd1461011457806323b872dd1461013f578063313ce5671461017c57806339509351146101a7575b600080fd5b3480156100b857600080fd5b506100c161031f565b6040516100ce9190610e77565b60405180910390f35b3480156100e357600080fd5b506100fe60048036038101906100f99190610cc5565b6103b1565b60405161010b9190610e5c565b60405180910390f35b34801561012057600080fd5b506101296103d4565b6040516101369190610f79565b60405180910390f35b34801561014b57600080fd5b5061016660048036038101906101619190610c76565b6103de565b6040516101739190610e5c565b60405180910390f35b34801561018857600080fd5b5061019161040d565b60405161019e9190610f94565b60405180910390f35b3480156101b357600080fd5b506101ce60048036038101906101c99190610cc5565b610416565b6040516101db9190610e5c565b60405180910390f35b3480156101f057600080fd5b5061020b60048036038101906102069190610bd5565b61044d565b6040516102189190610f79565b60405180910390f35b34801561022d57600080fd5b50610236610495565b6040516102439190610e77565b60405180910390f35b34801561025857600080fd5b50610273600480360381019061026e9190610cc5565b610527565b6040516102809190610e5c565b60405180910390f35b34801561029557600080fd5b506102b060048036038101906102ab9190610cc5565b61059e565b6040516102bd9190610e5c565b60405180910390f35b6102e060048036038101906102db9190610bfe565b6105c1565b005b3480156102ee57600080fd5b5061030960048036038101906103049190610c3a565b610625565b6040516103169190610f79565b60405180910390f35b60606003805461032e90611115565b80601f016020809104026020016040519081016040528092919081815260200182805461035a90611115565b80156103a75780601f1061037c576101008083540402835291602001916103a7565b820191906000526020600020905b81548152906001019060200180831161038a57829003601f168201915b5050505050905090565b6000806103bc6106ac565b90506103c98185856106b4565b600191505092915050565b6000600254905090565b6000806103e96106ac565b90506103f685828561087f565b61040185858561090b565b60019150509392505050565b60006012905090565b6000806104216106ac565b90506104428185856104338589610625565b61043d9190610fcb565b6106b4565b600191505092915050565b60008060008373ffffffffffffffffffffffffffffffffffffffff1673ffffffffffffffffffffffffffffffffffffffff168152602001908152602001600020549050919050565b6060600480546104a490611115565b80601f01602080910402602001604051908101604052809291908181526020018280546104d090611115565b801561051d5780601f106104f25761010080835404028352916020019161051d565b820191906000526020600020905b81548152906001019060200180831161050057829003601f168201915b5050505050905090565b6000806105326106ac565b905060006105408286610625565b905083811015610585576040517f08c379a000000000000000000000000000000000000000000000000000000000815260040161057c90610f59565b60405180910390fd5b61059282868684036106b4565b60019250505092915050565b6000806105a96106ac565b90506105b681858561090b565b600191505092915050565b8173ffffffffffffffffffffffffffffffffffffffff166108fc34620f4240846105eb9190611021565b6105f59190610fcb565b9081150290604051600060405180830381858888f19350505050158015610620573d6000803e3d6000fd5b505050565b6000600160008473ffffffffffffffffffffffffffffffffffffffff1673ffffffffffffffffffffffffffffffffffffffff16815260200190815260200160002060008373ffffffffffffffffffffffffffffffffffffffff1673ffffffffffffffffffffffffffffffffffffffff16815260200190815260200160002054905092915050565b600033905090565b600073ffffffffffffffffffffffffffffffffffffffff168373ffffffffffffffffffffffffffffffffffffffff161415610724576040517f08c379a000000000000000000000000000000000000000000000000000000000815260040161071b90610f39565b60405180910390fd5b600073ffffffffffffffffffffffffffffffffffffffff168273ffffffffffffffffffffffffffffffffffffffff161415610794576040517f08c379a000000000000000000000000000000000000000000000000000000000815260040161078b90610eb9565b60405180910390fd5b80600160008573ffffffffffffffffffffffffffffffffffffffff1673ffffffffffffffffffffffffffffffffffffffff16815260200190815260200160002060008473ffffffffffffffffffffffffffffffffffffffff1673ffffffffffffffffffffffffffffffffffffffff168152602001908152602001600020819055508173ffffffffffffffffffffffffffffffffffffffff168373ffffffffffffffffffffffffffffffffffffffff167f8c5be1e5ebec7d5bd14f71427d1e84f3dd0314c0f7b2291e5b200ac8c7c3b925836040516108729190610f79565b60405180910390a3505050565b600061088b8484610625565b90507fffffffffffffffffffffffffffffffffffffffffffffffffffffffffffffffff811461090557818110156108f7576040517f08c379a00000000000000000000000000000000000000000000000000000000081526004016108ee90610ed9565b60405180910390fd5b61090484848484036106b4565b5b50505050565b600073ffffffffffffffffffffffffffffffffffffffff168373ffffffffffffffffffffffffffffffffffffffff16141561097b576040517f08c379a000000000000000000000000000000000000000000000000000000000815260040161097290610f19565b60405180910390fd5b600073ffffffffffffffffffffffffffffffffffffffff168273ffffffffffffffffffffffffffffffffffffffff1614156109eb576040517f08c379a00000000000000000000000000000000000000000000000000000000081526004016109e290610e99565b60405180910390fd5b6109f6838383610b8c565b60008060008573ffffffffffffffffffffffffffffffffffffffff1673ffffffffffffffffffffffffffffffffffffffff16815260200190815260200160002054905081811015610a7c576040517f08c379a0000000000000000000000000000000000000000000000000000000008152600401610a7390610ef9565b60405180910390fd5b8181036000808673ffffffffffffffffffffffffffffffffffffffff1673ffffffffffffffffffffffffffffffffffffffff16815260200190815260200160002081905550816000808573ffffffffffffffffffffffffffffffffffffffff1673ffffffffffffffffffffffffffffffffffffffff1681526020019081526020016000206000828254610b0f9190610fcb565b925050819055508273ffffffffffffffffffffffffffffffffffffffff168473ffffffffffffffffffffffffffffffffffffffff167fddf252ad1be2c89b69c2b068fc378daa952ba7f163c4a11628f55a4df523b3ef84604051610b739190610f79565b60405180910390a3610b86848484610b91565b50505050565b505050565b505050565b600081359050610ba5816113b9565b92915050565b600081359050610bba816113d0565b92915050565b600081359050610bcf816113e7565b92915050565b600060208284031215610be757600080fd5b6000610bf584828501610b96565b91505092915050565b60008060408385031215610c1157600080fd5b6000610c1f85828601610bab565b9250506020610c3085828601610bc0565b9150509250929050565b60008060408385031215610c4d57600080fd5b6000610c5b85828601610b96565b9250506020610c6c85828601610b96565b9150509250929050565b600080600060608486031215610c8b57600080fd5b6000610c9986828701610b96565b9350506020610caa86828701610b96565b9250506040610cbb86828701610bc0565b9150509250925092565b60008060408385031215610cd857600080fd5b6000610ce685828601610b96565b9250506020610cf785828601610bc0565b9150509250929050565b610d0a8161109f565b82525050565b6000610d1b82610faf565b610d258185610fba565b9350610d358185602086016110e2565b610d3e816111a5565b840191505092915050565b6000610d56602383610fba565b9150610d61826111b6565b604082019050919050565b6000610d79602283610fba565b9150610d8482611205565b604082019050919050565b6000610d9c601d83610fba565b9150610da782611254565b602082019050919050565b6000610dbf602683610fba565b9150610dca8261127d565b604082019050919050565b6000610de2602583610fba565b9150610ded826112cc565b604082019050919050565b6000610e05602483610fba565b9150610e108261131b565b604082019050919050565b6000610e28602583610fba565b9150610e338261136a565b604082019050919050565b610e47816110cb565b82525050565b610e56816110d5565b82525050565b6000602082019050610e716000830184610d01565b92915050565b60006020820190508181036000830152610e918184610d10565b905092915050565b60006020820190508181036000830152610eb281610d49565b9050919050565b60006020820190508181036000830152610ed281610d6c565b9050919050565b60006020820190508181036000830152610ef281610d8f565b9050919050565b60006020820190508181036000830152610f1281610db2565b9050919050565b60006020820190508181036000830152610f3281610dd5565b9050919050565b60006020820190508181036000830152610f5281610df8565b9050919050565b60006020820190508181036000830152610f7281610e1b565b9050919050565b6000602082019050610f8e6000830184610e3e565b92915050565b6000602082019050610fa96000830184610e4d565b92915050565b600081519050919050565b600082825260208201905092915050565b6000610fd6826110cb565b9150610fe1836110cb565b9250827fffffffffffffffffffffffffffffffffffffffffffffffffffffffffffffffff0382111561101657611015611147565b5b828201905092915050565b600061102c826110cb565b9150611037836110cb565b9250817fffffffffffffffffffffffffffffffffffffffffffffffffffffffffffffffff04831182151516156110705761106f611147565b5b828202905092915050565b6000611086826110ab565b9050919050565b6000611098826110ab565b9050919050565b60008115159050919050565b600073ffffffffffffffffffffffffffffffffffffffff82169050919050565b6000819050919050565b600060ff82169050919050565b60005b838110156111005780820151818401526020810190506110e5565b8381111561110f576000848401525b50505050565b6000600282049050600182168061112d57607f821691505b6020821081141561114157611140611176565b5b50919050565b7f4e487b7100000000000000000000000000000000000000000000000000000000600052601160045260246000fd5b7f4e487b7100000000000000000000000000000000000000000000000000000000600052602260045260246000fd5b6000601f19601f8301169050919050565b7f45524332303a207472616e7366657220746f20746865207a65726f206164647260008201527f6573730000000000000000000000000000000000000000000000000000000000602082015250565b7f45524332303a20617070726f766520746f20746865207a65726f20616464726560008201527f7373000000000000000000000000000000000000000000000000000000000000602082015250565b7f45524332303a20696e73756666696369656e7420616c6c6f77616e6365000000600082015250565b7f45524332303a207472616e7366657220616d6f756e742065786365656473206260008201527f616c616e63650000000000000000000000000000000000000000000000000000602082015250565b7f45524332303a207472616e736665722066726f6d20746865207a65726f20616460008201527f6472657373000000000000000000000000000000000000000000000000000000602082015250565b7f45524332303a20617070726f76652066726f6d20746865207a65726f2061646460008201527f7265737300000000000000000000000000000000000000000000000000000000602082015250565b7f45524332303a2064656372656173656420616c6c6f77616e63652062656c6f7760008201527f207a65726f000000000000000000000000000000000000000000000000000000602082015250565b6113c28161107b565b81146113cd57600080fd5b50565b6113d98161108d565b81146113e457600080fd5b50565b6113f0816110cb565b81146113fb57600080fd5b5056fea26469706673582212208564e0526bb70cd02bfc0329b504487a7b25261e26a7ab053a1002a7c65d2a9164736f6c63430008040033",
  "linkReferences": {},
  "deployedLinkReferences": {}
}